{
  "contractName": "BeaconContract",
  "abi": [
    {
      "inputs": [
        {
          "internalType": "address",
          "name": "verifierAddress",
          "type": "address"
        },
        {
          "internalType": "uint256",
          "name": "n_iters",
          "type": "uint256"
        }
      ],
      "stateMutability": "nonpayable",
      "type": "constructor"
    },
    {
      "anonymous": false,
      "inputs": [
        {
          "indexed": false,
          "internalType": "uint256",
          "name": "blockNumber",
          "type": "uint256"
        },
        {
          "indexed": false,
          "internalType": "bytes32",
          "name": "randomness",
          "type": "bytes32"
        }
      ],
      "name": "LogNewRandomness",
      "type": "event"
    },
    {
      "inputs": [],
      "name": "n_iterations",
      "outputs": [
        {
          "internalType": "uint256",
          "name": "",
          "type": "uint256"
        }
      ],
      "stateMutability": "view",
      "type": "function"
    },
    {
      "inputs": [],
      "name": "owner",
      "outputs": [
        {
          "internalType": "address",
          "name": "",
          "type": "address"
        }
      ],
      "stateMutability": "view",
      "type": "function"
    },
    {
      "inputs": [
        {
          "internalType": "uint256",
          "name": "blockNumber",
          "type": "uint256"
        },
        {
          "internalType": "bytes32",
          "name": "blockHash",
          "type": "bytes32"
        },
        {
          "internalType": "uint256[5]",
          "name": "proofPublicInput",
          "type": "uint256[5]"
        }
      ],
      "name": "registerNewRandomness",
      "outputs": [],
      "stateMutability": "nonpayable",
      "type": "function"
    },
    {
      "inputs": [
        {
          "internalType": "uint256",
          "name": "blockNumber",
          "type": "uint256"
        }
      ],
      "name": "getRandomness",
      "outputs": [
        {
          "internalType": "bytes32",
          "name": "",
          "type": "bytes32"
        }
      ],
      "stateMutability": "view",
      "type": "function"
    },
    {
      "inputs": [],
      "name": "getLatestRandomness",
      "outputs": [
        {
          "internalType": "uint256",
          "name": "",
          "type": "uint256"
        },
        {
          "internalType": "bytes32",
          "name": "",
          "type": "bytes32"
        }
      ],
      "stateMutability": "view",
      "type": "function"
    }
  ],
  "bytecode": "0x608060405234801561001057600080fd5b50604051610a9e380380610a9e8339818101604052604081101561003357600080fd5b81019080805190602001909291908051906020019092919050505033600260006101000a81548173ffffffffffffffffffffffffffffffffffffffff021916908373ffffffffffffffffffffffffffffffffffffffff16021790555081600460006101000a81548173ffffffffffffffffffffffffffffffffffffffff021916908373ffffffffffffffffffffffffffffffffffffffff1602179055508060038190555050506109b6806100e86000396000f3fe608060405234801561001057600080fd5b50600436106100575760003560e01c8063453f4f621461005c5780638da5cb5b1461009e578063c06d9475146100d2578063d92f1280146100f0578063f4bebd7a14610132575b600080fd5b6100886004803603602081101561007257600080fd5b8101908080359060200190929190505050610157565b6040518082815260200191505060405180910390f35b6100a6610173565b604051808273ffffffffffffffffffffffffffffffffffffffff16815260200191505060405180910390f35b6100da610199565b6040518082815260200191505060405180910390f35b610130600480360360e081101561010657600080fd5b8101908080359060200190929190803590602001909291908060a00190919291929050505061019f565b005b61013a61085e565b604051808381526020018281526020019250505060405180910390f35b6000806000838152602001908152602001600020549050919050565b600260009054906101000a900473ffffffffffffffffffffffffffffffffffffffff1681565b60035481565b600260009054906101000a900473ffffffffffffffffffffffffffffffffffffffff1673ffffffffffffffffffffffffffffffffffffffff163373ffffffffffffffffffffffffffffffffffffffff1614610262576040517f08c379a00000000000000000000000000000000000000000000000000000000081526004018080602001828103825260178152602001807f53656e646572206973206e6f7420746865206f776e657200000000000000000081525060200191505060405180910390fd5b4383108015610274575060ff83014311155b6102c9576040517f08c379a00000000000000000000000000000000000000000000000000000000081526004018080602001828103825260288152602001806108c46028913960400191505060405180910390fd5b8183401480156102dc57506000801b8214155b610331576040517f08c379a00000000000000000000000000000000000000000000000000000000081526004018080602001828103825260308152602001806108ec6030913960400191505060405180910390fd5b60288160006005811061034057fe5b60200201351061039b576040517f08c379a00000000000000000000000000000000000000000000000000000000081526004018080602001828103825260428152602001806108826042913960600191505060405180910390fd5b6001816000600581106103aa57fe5b602002013560020a600a02036003541461040f576040517f08c379a00000000000000000000000000000000000000000000000000000000081526004018080602001828103825260318152602001806109506031913960400191505060405180910390fd5b6f300000030000000100000000000000018160016005811061042d57fe5b602002013510801561045f57506f300000030000000100000000000000018160026005811061045857fe5b6020020135105b6104d1576040517f08c379a00000000000000000000000000000000000000000000000000000000081526004018080602001828103825260138152602001807f496e76616c696420766466206f75747075742e0000000000000000000000000081525060200191505060405180910390fd5b60008260405160200180828152602001807f766565646f0000000000000000000000000000000000000000000000000000008152506005019150506040516020818303038152906040528051906020012060001c90508160036005811061053457fe5b60200201356f1fffffffffffffffffffffffffffffff8216146105a2576040517f08c379a000000000000000000000000000000000000000000000000000000000815260040180806020018281038252603481526020018061091c6034913960400191505060405180910390fd5b816004600581106105af57fe5b60200201356f1fffffffffffffffffffffffffffffff607d83901c1614610621576040517f08c379a000000000000000000000000000000000000000000000000000000000815260040180806020018281038252603481526020018061091c6034913960400191505060405180910390fd5b600460009054906101000a900473ffffffffffffffffffffffffffffffffffffffff1673ffffffffffffffffffffffffffffffffffffffff16636a93856783604051602001808260056020028082843780830192505050915050604051602081830303815290604052805190602001206040518263ffffffff1660e01b81526004018082815260200191505060206040518083038186803b1580156106c557600080fd5b505afa1580156106d9573d6000803e3d6000fd5b505050506040513d60208110156106ef57600080fd5b8101908080519060200190929190505050610772576040517f08c379a00000000000000000000000000000000000000000000000000000000081526004018080602001828103825260188152602001807f4e6f2076616c69642070726f6f662070726f76696465642e000000000000000081525060200191505060405180910390fd5b60008260016005811061078157fe5b60200201358360026005811061079357fe5b602002013560405160200180838152602001828152602001807f766565646f0000000000000000000000000000000000000000000000000000008152506005019250505060405160208183030381529060405280519060200120905080600080878152602001908152602001600020819055507f72dad8b9464f88a2972c8e4a054a45894d36f445330974fc281d3d5a149ace468582604051808381526020018281526020019250505060405180910390a160015485111561085757846001819055505b5050505050565b60008060015460008060015481526020019081526020016000205491509150909156fe564446207265706f72746564206c656e67746820657863656564732074686520696e7465676572206f766572666c6f772070726f74656374696f6e206c696d69742e426c6f636b206973206e6f742077697468696e20746865206c6173742032353620626c6f636b732e626c6f636b4861736820646f6573206e6f74206d6174636820626c6f636b4e756d626572206f7220746f6f206f6c642e626c6f636b4861736820646f6573206e6f74206d617463682074686520676976656e2070726f6f665075626c6963496e7075742e5075626c696320696e70757420616e64206e5f697465726174696f6e7320617265206e6f7420636f6d70617469626c652ea2646970667358221220e015bc75894670dfeaa5ed83f0004094cc61fa7f45871e9e016ad322b4e9f7b264736f6c634300060c0033",
  "immutableReferences": {},
  "source": "pragma solidity ^0.6.2;\n\nimport \"./IFactRegistry.sol\";\nimport \"./PublicInputOffsets.sol\";\n\n\ncontract BeaconContract is PublicInputOffsets {\n    event LogNewRandomness(uint256 blockNumber, bytes32 randomness);\n    // Mapping: blockNumber -> randomness.\n    mapping(uint256 => bytes32) private registeredRandomness;\n\n    uint256 latestBlockNumber;\n    address public owner;\n    uint256 public n_iterations;\n    IFactRegistry verifierContract;\n    uint256 internal constant PRIME = 0x30000003000000010000000000000001;\n    uint256 internal constant MAX_LOG_TRACE_LENGTH = 40;\n    uint256 internal constant PUBLIC_INPUT_SIZE = 5;\n\n    modifier onlyOwner {\n        require(msg.sender == owner, \"Sender is not the owner\");\n        _;\n    }\n\n    constructor(address verifierAddress, uint256 n_iters) public {\n        owner = msg.sender;\n        verifierContract = IFactRegistry(verifierAddress);\n        n_iterations = n_iters;\n    }\n\n    /*\n      Registers a new randomness if and only if:\n        1. Can verify the block hash of the given blockNumber and that it indeed equals blockHash.\n        2. The vdfInput calculted from the given blockHash matches the given proofPublicInput.\n        3. The proofPublicInput was registered as a fact in the verifier contract.\n      Updates latest randomness.\n    */\n    function registerNewRandomness(\n        uint256 blockNumber,\n        bytes32 blockHash,\n        uint256[PUBLIC_INPUT_SIZE] calldata proofPublicInput\n    ) external onlyOwner {\n        // EVM can get block hash only for latest 256 blocks.\n        require(\n            blockNumber < block.number && block.number <= blockNumber + 255,\n            \"Block is not within the last 256 blocks.\"\n        );\n        // In case blockNumber refers to a block which is more than 256 blocks old,\n        // blockhash(blockNumber) returns 0.\n        require(\n            blockhash(blockNumber) == blockHash && blockHash != 0,\n            \"blockHash does not match blockNumber or too old.\"\n        );\n        require(\n            proofPublicInput[OFFSET_LOG_TRACE_LENGTH] < MAX_LOG_TRACE_LENGTH,\n            \"VDF reported length exceeds the integer overflow protection limit.\"\n        );\n        require(\n            n_iterations == 10 * 2**proofPublicInput[OFFSET_LOG_TRACE_LENGTH] - 1,\n            \"Public input and n_iterations are not compatible.\"\n        );\n        require(\n            proofPublicInput[OFFSET_VDF_OUTPUT_X] < PRIME &&\n                proofPublicInput[OFFSET_VDF_OUTPUT_Y] < PRIME,\n            \"Invalid vdf output.\"\n        );\n        // To calculate the input of the VDF we first hash the blockHash with the string \"veedo\",\n        // then we split the last 250 bits to two 125 bit field elements.\n        uint256 vdfInput = uint256(keccak256(abi.encodePacked(blockHash, \"veedo\")));\n        require(\n            vdfInput & ((1 << 125) - 1) == proofPublicInput[OFFSET_VDF_INPUT_X],\n            \"blockHash does not match the given proofPublicInput.\"\n        );\n        require(\n            ((vdfInput >> 125) & ((1 << 125) - 1)) == proofPublicInput[OFFSET_VDF_INPUT_Y],\n            \"blockHash does not match the given proofPublicInput.\"\n        );\n        require(\n            verifierContract.isValid(keccak256(abi.encodePacked(proofPublicInput))),\n            \"No valid proof provided.\"\n        );\n        // The randomness is the hash of the VDF output and the string \"veedo\"\n        bytes32 randomness = keccak256(\n            abi.encodePacked(\n                proofPublicInput[OFFSET_VDF_OUTPUT_X],\n                proofPublicInput[OFFSET_VDF_OUTPUT_Y],\n                \"veedo\"\n            )\n        );\n        registeredRandomness[blockNumber] = randomness;\n        emit LogNewRandomness(blockNumber, randomness);\n        // Update latestBlockNumber if blockNumber is greater than latestBlockNumber.\n        if (blockNumber > latestBlockNumber) {\n            latestBlockNumber = blockNumber;\n        }\n    }\n\n    /*\n      If there is a randomness for blockNumber, returns it.\n      Otherwise, returns 0.\n    */\n    function getRandomness(uint256 blockNumber)\n        external\n        view\n        returns (bytes32)\n    {\n        return registeredRandomness[blockNumber];\n    }\n\n    /*\n      Returns the latest registered (blockNumber, randomness).\n    */\n    function getLatestRandomness() external view returns (uint256, bytes32) {\n        return (latestBlockNumber, registeredRandomness[latestBlockNumber]);\n    }\n}\n",
  "sourcePath": "/Users/gokulalex/Apps/eth_apps/ConcertNet/contracts/BeaconContract.sol",
  "compiler": {
    "name": "solc",
    "version": "0.6.12+commit.27d51765.Emscripten.clang"
  },
  "schemaVersion": "3.2.3",
  "updatedAt": "2020-09-17T19:37:00.630Z",
  "devdoc": {
    "kind": "dev",
    "methods": {},
    "version": 1
  },
  "userdoc": {
    "kind": "user",
    "methods": {},
    "version": 1
  }
}