{
  "contractName": "Beacon",
  "abi": [
    {
      "inputs": [],
      "name": "getLatestRandomness",
      "outputs": [
        {
          "internalType": "uint256",
          "name": "",
          "type": "uint256"
        },
        {
          "internalType": "bytes32",
          "name": "",
          "type": "bytes32"
        }
      ],
      "stateMutability": "view",
      "type": "function"
    }
  ],
  "bytecode": "0x6080604052348015600f57600080fd5b50608c8061001e6000396000f3fe6080604052348015600f57600080fd5b506004361060285760003560e01c8063f4bebd7a14602d575b600080fd5b60336050565b604051808381526020018281526020019250505060405180910390f35b6000809156fea2646970667358221220e8e2db77b53d9f7e4b8acf8c8c09e36681f91298972b2dbca90a987939b4b6d264736f6c634300060c0033",
  "immutableReferences": {},
  "source": "pragma solidity ^0.6.0;\n\nimport \"./BeaconContract.sol\";\n\ncontract Beacon{\n    function getLatestRandomness()external view returns(uint256,bytes32){}\n    \n}\n\ncontract FusionLedgerTimeSeriesOracle {\n\n    address public oracleAddress;\n  \n    address public BeaconContractAddress=0x79474439753C7c70011C3b00e06e559378bAD040;\n\n    constructor (address _oracleAddress) public {\n    oracleAddress = _oracleAddress;\n    }\n  \n    function setBeaconContractAddress(address _address) public  {\n        BeaconContractAddress=_address;\n    }\n    \n    function generateRandomNumber() public view returns(bytes32){\n        uint blockNumber;\n        bytes32 randomNumber;\n        Beacon beacon=Beacon(BeaconContractAddress);\n        (blockNumber,randomNumber)=beacon.getLatestRandomness();\n        return randomNumber;\n    }\n\n    \n    //Time Series Average Index\n    uint public time_series_average_number;\n    \n    //function setting Time Series Avarge from the Data Source\n    function setTimeSeriesAverage(uint _number) public {\n        time_series_average_number = block.timestamp + _number;\n    }\n    \n    //getter for the Time Sries Average Index\n    function getTimeSeriesAverage() public view returns (uint) {\n      \n      require(msg.sender == oracleAddress);\n\n        if ((bytes32(block.number))> generateRandomNumber()) {\n    \n        return time_series_average_number;\n      }\n    }\n}\n",
  "sourcePath": "/Users/gokulalex/Apps/eth_apps/ConcertNet/contracts/fusion_time_series_oracle_contract.sol",
  "compiler": {
    "name": "solc",
    "version": "0.6.12+commit.27d51765.Emscripten.clang"
  },
  "schemaVersion": "3.2.3",
  "updatedAt": "2020-09-18T15:26:00.894Z",
  "devdoc": {
    "kind": "dev",
    "methods": {},
    "version": 1
  },
  "userdoc": {
    "kind": "user",
    "methods": {},
    "version": 1
  }
}