{
  "contractName": "FusionLedgerTimeSeriesOracle",
  "abi": [
    {
      "inputs": [
        {
          "internalType": "address",
          "name": "_oracleAddress",
          "type": "address"
        }
      ],
      "stateMutability": "nonpayable",
      "type": "constructor"
    },
    {
      "inputs": [],
      "name": "BeaconContractAddress",
      "outputs": [
        {
          "internalType": "address",
          "name": "",
          "type": "address"
        }
      ],
      "stateMutability": "view",
      "type": "function"
    },
    {
      "inputs": [],
      "name": "oracleAddress",
      "outputs": [
        {
          "internalType": "address",
          "name": "",
          "type": "address"
        }
      ],
      "stateMutability": "view",
      "type": "function"
    },
    {
      "inputs": [],
      "name": "time_series_average_number",
      "outputs": [
        {
          "internalType": "uint256",
          "name": "",
          "type": "uint256"
        }
      ],
      "stateMutability": "view",
      "type": "function"
    },
    {
      "inputs": [
        {
          "internalType": "address",
          "name": "_address",
          "type": "address"
        }
      ],
      "name": "setBeaconContractAddress",
      "outputs": [],
      "stateMutability": "nonpayable",
      "type": "function"
    },
    {
      "inputs": [],
      "name": "generateRandomNumber",
      "outputs": [
        {
          "internalType": "bytes32",
          "name": "",
          "type": "bytes32"
        }
      ],
      "stateMutability": "view",
      "type": "function"
    },
    {
      "inputs": [
        {
          "internalType": "uint256",
          "name": "_number",
          "type": "uint256"
        }
      ],
      "name": "setTimeSeriesAverage",
      "outputs": [],
      "stateMutability": "nonpayable",
      "type": "function"
    },
    {
      "inputs": [],
      "name": "getTimeSeriesAverage",
      "outputs": [
        {
          "internalType": "uint256",
          "name": "",
          "type": "uint256"
        }
      ],
      "stateMutability": "view",
      "type": "function"
    }
  ],
  "bytecode": "0x60806040527379474439753c7c70011c3b00e06e559378bad040600160006101000a81548173ffffffffffffffffffffffffffffffffffffffff021916908373ffffffffffffffffffffffffffffffffffffffff16021790555034801561006557600080fd5b506040516104b63803806104b68339818101604052602081101561008857600080fd5b8101908080519060200190929190505050806000806101000a81548173ffffffffffffffffffffffffffffffffffffffff021916908373ffffffffffffffffffffffffffffffffffffffff160217905550506103cd806100e96000396000f3fe608060405234801561001057600080fd5b506004361061007d5760003560e01c8063a89ae4ba1161005b578063a89ae4ba14610118578063b7c3a11a1461014c578063d41f256d1461016a578063f51123a6146101985761007d565b80632035ecf414610082578063773a1154146100b657806386f69ee6146100d4575b600080fd5b61008a6101b6565b604051808273ffffffffffffffffffffffffffffffffffffffff16815260200191505060405180910390f35b6100be6101dc565b6040518082815260200191505060405180910390f35b610116600480360360208110156100ea57600080fd5b81019080803573ffffffffffffffffffffffffffffffffffffffff1690602001909291905050506102a2565b005b6101206102e6565b604051808273ffffffffffffffffffffffffffffffffffffffff16815260200191505060405180910390f35b61015461030a565b6040518082815260200191505060405180910390f35b6101966004803603602081101561018057600080fd5b8101908080359060200190929190505050610385565b005b6101a0610391565b6040518082815260200191505060405180910390f35b600160009054906101000a900473ffffffffffffffffffffffffffffffffffffffff1681565b600080600080600160009054906101000a900473ffffffffffffffffffffffffffffffffffffffff1690508073ffffffffffffffffffffffffffffffffffffffff1663f4bebd7a6040518163ffffffff1660e01b8152600401604080518083038186803b15801561024c57600080fd5b505afa158015610260573d6000803e3d6000fd5b505050506040513d604081101561027657600080fd5b810190808051906020019092919080519060200190929190505050809350819450505081935050505090565b80600160006101000a81548173ffffffffffffffffffffffffffffffffffffffff021916908373ffffffffffffffffffffffffffffffffffffffff16021790555050565b60008054906101000a900473ffffffffffffffffffffffffffffffffffffffff1681565b60008060009054906101000a900473ffffffffffffffffffffffffffffffffffffffff1673ffffffffffffffffffffffffffffffffffffffff163373ffffffffffffffffffffffffffffffffffffffff161461036557600080fd5b61036d6101dc565b4360001b1115610381576002549050610382565b5b90565b80420160028190555050565b6002548156fea26469706673582212200a5ef69b8e2a598c75876a6ae3f135a177ee7e724a3b36fcba170d9f66459f4b64736f6c634300060c0033",
  "immutableReferences": {},
  "source": "pragma solidity ^0.6.0;\n\nimport \"./BeaconContract.sol\";\n\ncontract Beacon{\n    function getLatestRandomness()external view returns(uint256,bytes32){}\n    \n}\n\ncontract FusionLedgerTimeSeriesOracle {\n\n    address public oracleAddress;\n  \n    address public BeaconContractAddress=0x79474439753C7c70011C3b00e06e559378bAD040;\n\n    constructor (address _oracleAddress) public {\n    oracleAddress = _oracleAddress;\n    }\n  \n    function setBeaconContractAddress(address _address) public  {\n        BeaconContractAddress=_address;\n    }\n    \n    function generateRandomNumber() public view returns(bytes32){\n        uint blockNumber;\n        bytes32 randomNumber;\n        Beacon beacon=Beacon(BeaconContractAddress);\n        (blockNumber,randomNumber)=beacon.getLatestRandomness();\n        return randomNumber;\n    }\n\n    \n    //Time Series Average Index\n    uint public time_series_average_number;\n    \n    //function setting Time Series Avarge from the Data Source\n    function setTimeSeriesAverage(uint _number) public {\n        time_series_average_number = block.timestamp + _number;\n    }\n    \n    //getter for the Time Sries Average Index\n    function getTimeSeriesAverage() public view returns (uint) {\n      \n      require(msg.sender == oracleAddress);\n\n        if ((bytes32(block.number))> generateRandomNumber()) {\n    \n        return time_series_average_number;\n      }\n    }\n}\n",
  "sourcePath": "/Users/gokulalex/Apps/eth_apps/ConcertNet/contracts/fusion_time_series_oracle_contract.sol",
  "compiler": {
    "name": "solc",
    "version": "0.6.12+commit.27d51765.Emscripten.clang"
  },
  "schemaVersion": "3.2.3",
  "updatedAt": "2020-09-18T15:26:01.058Z",
  "devdoc": {
    "kind": "dev",
    "methods": {},
    "version": 1
  },
  "userdoc": {
    "kind": "user",
    "methods": {},
    "version": 1
  }
}