{
  "contractName": "PoseidonUnit",
  "abi": [
    {
      "inputs": [
        {
          "internalType": "uint256[]",
          "name": "",
          "type": "uint256[]"
        }
      ],
      "name": "poseidon",
      "outputs": [
        {
          "internalType": "uint256",
          "name": "",
          "type": "uint256"
        }
      ],
      "stateMutability": "pure",
      "type": "function"
    }
  ],
  "bytecode": "0x608060405234801561001057600080fd5b50610130806100206000396000f3fe6080604052348015600f57600080fd5b506004361060285760003560e01c8063c4420fb414602d575b600080fd5b60dd60048036036020811015604157600080fd5b8101908080359060200190640100000000811115605d57600080fd5b820183602082011115606e57600080fd5b80359060200191846020830284011164010000000083111715608f57600080fd5b919080806020026020016040519081016040528093929190818152602001838360200280828437600081840152601f19601f82011690508083019250505050505050919291929050505060f3565b6040518082815260200191505060405180910390f35b600091905056fea2646970667358221220ef9e8e812c1dbc30160ba663cab076f4b463634e59d899068b03c4a928a21ba464736f6c634300060c0033",
  "immutableReferences": {},
  "source": "pragma solidity ^0.6.2;\n\nimport './Memory.sol';\n\n/**\n * @dev Interface poseidon hash function\n */\ncontract PoseidonUnit {\n  function poseidon(uint256[] memory) public pure returns(uint256) {}\n}\n\n/**\n * @dev Rollup helper functions\n */\ncontract RollupHelpers {\n\n  using Memory for *;\n\n  PoseidonUnit insPoseidonUnit;\n\n  struct Entry {\n    bytes32 e1;\n    bytes32 e2;\n    bytes32 e3;\n    bytes32 e4;\n    bytes32 e5;\n    bytes32 e6;\n  }\n\n  uint constant bytesOffChainTx = 3*2 + 2;\n  uint constant rField = 21888242871839275222246405745257275088548364400416034343698204186575808495617;\n  uint64 constant IDEN3_ROLLUP_TX = 4839017969649077913;\n\n  /**\n   * @dev Load poseidon smart contract\n   * @param _poseidonContractAddr poseidon contract address\n   */\n  constructor (address _poseidonContractAddr) public {\n    insPoseidonUnit = PoseidonUnit(_poseidonContractAddr);\n  }\n\n  /**\n   * @dev hash poseidon multi-input elements\n   * @param inputs input element array\n   * @return poseidon hash\n   */\n  function hashGeneric(uint256[] memory inputs) internal view returns (uint256){\n    return insPoseidonUnit.poseidon(inputs);\n  }\n\n  /**\n   * @dev hash poseidon for sparse merkle tree nodes\n   * @param left input element array\n   * @param right input element array\n   * @return poseidon hash\n   */\n  function hashNode(uint256 left, uint256 right) internal view returns (uint256){\n    uint256[] memory inputs = new uint256[](2);\n    inputs[0] = left;\n    inputs[1] = right;\n    return hashGeneric(inputs);\n  }\n\n  /**\n   * @dev hash poseidon for sparse merkle tree final nodes\n   * @param key input element array\n   * @param value input element array\n   * @return poseidon hash1\n   */\n  function hashFinalNode(uint256 key, uint256 value) internal view returns (uint256){\n    uint256[] memory inputs = new uint256[](3);\n    inputs[0] = key;\n    inputs[1] = value;\n    inputs[2] = 1;\n    return hashGeneric(inputs);\n  }\n\n  /**\n   * @dev poseidon hash for entry generic structure\n   * @param entry entry structure\n   * @return poseidon hash\n   */\n  function hashEntry(Entry memory entry) internal view returns (uint256){\n    uint256[] memory inputs = new uint256[](6);\n    inputs[0] = uint256(entry.e1);\n    inputs[1] = uint256(entry.e2);\n    inputs[2] = uint256(entry.e3);\n    inputs[3] = uint256(entry.e4);\n    inputs[4] = uint256(entry.e5);\n    inputs[5] = uint256(entry.e6);\n    return hashGeneric(inputs);\n  }\n\n  /**\n   * @dev Verify sparse merkle tree proof\n   * @param root root to verify\n   * @param siblings all siblings\n   * @param key key to verify\n   * @param value value to verify\n   * @param isNonExistence existence or non-existence verification\n   * @param isOld indicates non-existence non-empty verification\n   * @param oldKey needed in case of non-existence proof with non-empty node\n   * @param oldValue needed in case of non-existence proof with non-empty node\n   * @return true if verification is correct, false otherwise\n   */\n  function smtVerifier(uint256 root, uint256[] memory siblings,\n    uint256 key, uint256 value, uint256 oldKey, uint256 oldValue,\n    bool isNonExistence, bool isOld, uint256 maxLevels) internal view returns (bool){\n\n    // Step 1: check if proof is non-existence non-empty\n    uint256 newHash;\n    if (isNonExistence && isOld) {\n      // Check old key is final node\n      uint exist = 0;\n      uint levCounter = 0;\n      while ((exist == 0) && (levCounter < maxLevels)) {\n        exist = (uint8(oldKey >> levCounter) & 0x01) ^ (uint8(key >> levCounter) & 0x01);\n        levCounter += 1;\n      }\n\n      if (exist == 0) {\n        return false;\n      }\n      newHash = hashFinalNode(oldKey, oldValue);\n    }\n\n    // Step 2: Calcuate root\n    uint256 nextHash = isNonExistence ? newHash : hashFinalNode(key, value);\n    uint256 siblingTmp;\n    for (int256 i = int256(siblings.length) - 1; i >= 0; i--) {\n     siblingTmp = siblings[uint256(i)];\n      bool leftRight = (uint8(key >> i) & 0x01) == 1;\n      nextHash = leftRight ? hashNode(siblingTmp, nextHash)\n                           : hashNode(nextHash, siblingTmp);\n    }\n\n    // Step 3: Check root\n    return root == nextHash;\n  }\n\n  /**\n   * @dev build entry for fee plan\n   * @param feePlan contains all fee plan data\n   * @return entry structure\n   */\n  function buildEntryFeePlan(bytes32[2] memory feePlan)\n    internal pure returns (Entry memory entry) {\n    // build element 1\n    entry.e1 = bytes32(feePlan[0] << 128) >> (256 - 128);\n    // build element 2\n    entry.e2 = bytes32(feePlan[0]) >> (256 - 128);\n    // build element 3\n    entry.e3 = bytes32(feePlan[1] << 128)>>(256 - 128);\n    // build element 4\n    entry.e4 = bytes32(feePlan[1]) >> (256 - 128);\n  }\n\n  /**\n   * @dev Calculate total fee amount for the beneficiary\n   * @param tokenIds contains all token id (feePlanCoinsInput)\n   * @param totalFees contains total fee for every token Id (feeTotal)\n   * @param nToken token position on fee plan\n   * @return total fee amount\n   */\n  function calcTokenTotalFee(bytes32 tokenIds, bytes32 totalFees, uint nToken)\n    internal pure returns (uint32, uint256) {\n    uint256 ptr = 256 - ((nToken+1)*16);\n    // get fee depending on token\n    uint256 fee = float2Fix(uint16(bytes2(totalFees << ptr)));\n    // get token id\n    uint32 tokenId = uint16(bytes2(tokenIds << ptr));\n\n    return (tokenId, fee);\n  }\n\n  /**\n   * @dev build entry for the exit tree leaf\n   * @param amount amount\n   * @param token token type\n   * @param Ax x coordinate public key babyJub\n   * @param Ay y coordinate public key babyJub\n   * @param ethAddress ethereum address\n   * @param nonce nonce parameter\n   * @return entry structure\n   */\n  function buildTreeState(uint256 amount, uint32 token, uint256 Ax, uint Ay,\n    address ethAddress, uint48 nonce) internal pure returns (Entry memory entry) {\n     // build element 1\n    entry.e1 = bytes32(bytes4(token)) >> (256 - 32);\n    entry.e1 |= bytes32(bytes6(nonce)) >> (256 - 48 - 32);\n    // build element 2\n    entry.e2 = bytes32(amount);\n    // build element 3\n    entry.e3 = bytes32(Ax);\n    // build element 4\n    entry.e4 = bytes32(Ay);\n    // build element 5\n    entry.e5 = bytes32(bytes20(ethAddress)) >> (256 - 160);\n  }\n\n  /**\n   * @dev build transaction data\n   * @param amountF amount to send encoded as half precision float\n   * @param token token identifier\n   * @param nonce nonce parameter\n   * @param fee fee sent by the user, it represents some % of the amount\n   * @param rqOffset atomic swap paramater\n   * @param onChain flag to indicate that transaction is an onChain one\n   * @param newAccount flag to indicate if transaction is of deposit type\n   * @return element\n   */\n  function buildTxData(\n    uint16 amountF,\n    uint32 token,\n    uint48 nonce,\n    uint8 fee,\n    uint8 rqOffset,\n    bool onChain,\n    bool newAccount\n    ) internal pure returns (bytes32 element) {\n    // build element\n    element = bytes32(bytes8(IDEN3_ROLLUP_TX)) >> (256 - 64);\n    element |= bytes32(bytes2(amountF)) >> (256 - 16 - 64);\n    element |= bytes32(bytes4(token)) >> (256 - 32 - 16 - 64);\n    element |= bytes32(bytes6(nonce)) >> (256 - 48 - 32 - 16 - 64);\n\n    bytes1 nextByte = bytes1(fee) & 0x0f;\n    nextByte = nextByte | (bytes1(rqOffset << 4) & 0x70);\n    nextByte = onChain ? (nextByte | 0x80): nextByte;\n    element |= bytes32(nextByte) >> (256 - 8 - 48 - 32 - 16 - 64);\n\n    bytes1 last = newAccount ? bytes1(0x01) : bytes1(0x00);\n\n    element |= bytes32(last) >> (256 - 8 - 8 - 48 - 32 - 16 - 64);\n  }\n\n  /**\n   * @dev build on-chain Hash\n   * @param oldOnChainHash previous on chain hash\n   * @param txData transaction data coded into a bytes32\n   * @param loadAmount input amount\n   * @param dataOnChain poseidon hash of the onChain data\n   * @param fromEthAddr ethereum addres sender\n   * @return entry structure\n   */\n  function buildOnChainHash(\n    uint256 oldOnChainHash,\n    uint256 txData,\n    uint128 loadAmount,\n    uint256 dataOnChain,\n    address fromEthAddr\n    ) internal pure returns (Entry memory entry) {\n    // build element 1\n    entry.e1 = bytes32(oldOnChainHash);\n    // build element 2\n    entry.e2 = bytes32(txData);\n    // build element 3\n    entry.e3 = bytes32(bytes16(loadAmount)) >> (256 - 128);\n    // build element 4\n    entry.e4 = bytes32(dataOnChain);\n    // build element 5\n    entry.e5 = bytes32(bytes20(fromEthAddr)) >> (256 - 160);\n  }\n\n  /**\n   * @dev build hash of the on-chain data\n   * @param fromAx x coordinate public key BabyJubJub sender\n   * @param fromAy y coordinate public key BabyJubJub sender\n   * @param toEthAddr ethereum addres receiver\n   * @param toAx x coordinate public key BabyJubJub receiver\n   * @param toAy y coordinate public key BabyJubJub receiver\n   * @return entry structure\n   */\n  function buildOnChainData(\n    uint256 fromAx,\n    uint256 fromAy,\n    address toEthAddr,\n    uint256 toAx,\n    uint256 toAy\n    ) internal pure returns (Entry memory entry) {\n    // build element 1\n    entry.e1 = bytes32(fromAx);\n    // build element 2\n    entry.e2 = bytes32(fromAy);\n    // build element 3\n    entry.e3 = bytes32(bytes20(toEthAddr)) >> (256 - 160);\n    // build element 4\n    entry.e4 = bytes32(toAx);\n    // build element 5\n    entry.e5 = bytes32(toAy);\n  }\n\n  /**\n   * @dev Decode half floating precision\n   * @param float Float half precision encode number\n   * @return Decoded floating half precision\n   */\n  function float2Fix(uint16 float) public pure returns (uint256) {\n    uint256 m = float & 0x3FF;\n    uint256 e = float >> 11;\n    uint256 e5 = (float >> 10) & 1;\n\n    uint256 exp = 10 ** e;\n    uint256 fix = m * exp;\n\n    if ((e5 == 1) && (e != 0)){\n      fix = fix + (exp / 2);\n    }\n    return fix;\n  }\n\n  /**\n   * @dev Retrieve ethereum address from a msg plus signature\n   * @param msgHash message hash\n   * @param rsv signature\n   * @return Ethereum address recovered from the signature\n   */\n  function checkSig(bytes32 msgHash, bytes memory rsv) public pure returns (address) {\n    bytes32 r;\n    bytes32 s;\n    uint8   v;\n\n    // solium-disable security/no-inline-assembly\n    assembly {\n        r := mload(add(rsv, 32))\n        s := mload(add(rsv, 64))\n        v := byte(0, mload(add(rsv, 96)))\n    }\n    return ecrecover(msgHash, v, r, s);\n  }\n\n  /**\n   * @dev update on-chain fees\n   * it updates every batch if it is full or build\n   * @param onChainTxCount number of on-chain transactions in the same batch\n   * @param currentFee current on-chain fee\n   * @return newFee\n   */\n  function updateOnchainFee(uint256 onChainTxCount, uint256 currentFee) internal pure returns (uint256 newFee) {\n      if (10 < onChainTxCount)\n          newFee = (currentFee*100722)/100000;\n      else if (10 > onChainTxCount)\n          newFee = (currentFee*100000)/100722;\n      else\n          newFee = currentFee;\n      if (newFee > 1 ether)\n          newFee = 1 ether;\n      else if (newFee < (1 szabo / 1000) ) // 1 Gwei\n          newFee = 1 szabo / 1000;\n  }\n\n  /**\n   * @dev update deposit fee\n   * It updates every batch\n   * @param depositCount number of deposits in the same batch\n   * @param oldFee current deposit fee\n   * @return newFee\n   */\n  function updateDepositFee(uint32 depositCount, uint256 oldFee) internal pure returns (uint256 newFee) {\n      newFee = oldFee;\n      for (uint32 i = 0; i < depositCount; i++) {\n          newFee = newFee * 10000008235 / 10000000000;\n      }\n  }\n}\n",
  "sourcePath": "/Users/gokulalex/Apps/eth_apps/ConcertNet/contracts/RollupHelpers.sol",
  "compiler": {
    "name": "solc",
    "version": "0.6.12+commit.27d51765.Emscripten.clang"
  },
  "schemaVersion": "3.2.3",
  "updatedAt": "2020-09-17T19:37:00.713Z",
  "devdoc": {
    "details": "Interface poseidon hash function",
    "kind": "dev",
    "methods": {},
    "version": 1
  },
  "userdoc": {
    "kind": "user",
    "methods": {},
    "version": 1
  }
}